:100000000C9418040C9449040C9449040C9449046D
:100010000C9449040C9449040C9449040C9449042C
:100020000C9449040C9449040C9449040C9449041C
:100030000C9449040C9449040C9449040C9449040C
:100040000C9449040C9449040C9449040C944904FC
:100050000C9449040C9449040C9449040C94B31076
:100060000C9449040C94BD140C9489150C94490407
:100070000C9449040C9449040C9449040C944904CC
:100080000C9449040C9449040C9449040C944904BC
:100090000C94F0140C94C8150C9449040C94490465
:1000A0000C9449040C9449040C9449040C9449049C
:1000B0000C9449040C9449040C9449040C9449048C
:1000C0000C9449040C9449040C9449040C94231591
:1000D0000C9407160C9449040C9456150C9446166F
:1000E0000C944904F211F511E811EC112C12F911DC
:1000F000FD11031207120B121112151219122C12F4
:100100001F12231227120C9409140C94C2120C947F
:10011000E5290C94BA360C948D2C0C940E310C9469
:100120007E310C94E7300C9444310C9411120C94F1
:10013000992B0C94CC190C9456140C94F5110C9426
:10014000F9110C9407120C94AE2A0C94F2110C9431
:100150000D170C940B120C9423120C9427120C9470
:100160008E2A0C94042B0C94E8110C9433220C94DA
:10017000DC300C94B8310C94CD1A0C94A22A0C9457
:10018000F42F0C94B72B0C94FB300C94EC110C94C2
:100190001A140C9419120C9415120C9436140C9415
:1001A0002C120C948C2C0C94F6310C94FD110C94A4
:1001B000B5190C94E2190C94962A0C94BF2A0C944D
:1001C000BA090C94FE190C942D2C0C9403120C9467
:1001D0001D1A0C94271A0C948F2A0C9412350C9427
:1001E000BE2A0C943F360C94C6340C940A140C941A
:1001F00061140C94482B0C941F120000090A020889
:100200000B0C0D07060304010000000000000000B5
:1002100000000000000000000000000000000000DE
:1002200000000000000011100F000000000000009E
:1002300000000000000000000000000000000000BE
:1002400001021020200808102040102040800201E8
:1002500002010804020101020408102040808040CD
:1002600020100804020180040201804020100804CC
:10027000020108040201010204081020408001026A
:100280000408102040800505050507050808080832
:10029000020202020A0A080804040404010101011E
:1002A0000101010103030303030303030407070719
:1002B0000C0C0C0C0C0C0C0C0202020206060606BE
:1002C000060606060B0B0B0B0B0B0B0B000020009E
:1002D0002300260029002C002F003200000100001E
:1002E00003010601090100002200250028002B005F
:1002F0002E003100340002010000050108010B014D
:1003000000002100240027002A002D0030003300C7
:1003100001010000040107010A017C3C3E5E2B3D07
:100320003F2F5B5D3B2C2A225C0000000000003E5A
:100330005B4F5B3E3E6B4F6B3E1C3E7C3E1C183C55
:100340007E3C181C577D571C1C5E7F5E1C00183CB1
:100350001800FFE7C3E7FF0018241800FFE7DBE7FA
:10036000FF30483A060E2629792926407F050507E1
:10037000407F05253F5A3CE73C5A7F3E1C1C08083D
:100380001C1C3E7F14227F22145F5F005F5F060902
:100390007F017F006689956A606060606094A2FF5B
:1003A000A29408047E040810207E201008082A1C4D
:1003B00008081C2A08081E101010100C1E0C1E0C19
:1003C00030383E3830060E3E0E06000000000000B9
:1003D000005F00000007000700147F147F14242A28
:1003E0007F2A1223130864623649562050000807FA
:1003F0000300001C2241000041221C002A1C7F1C1B
:100400002A08083E0808008070300008080808081C
:10041000000060600020100804023E5149453E0083
:10042000427F400072494949462141494D331814E1
:10043000127F1027454545393C4A49493141211130
:1004400009073649494936464949291E0000140022
:100450000000403400000008142241141414141445
:10046000004122140802015909063E415D594E7CA3
:100470001211127C7F494949363E414141227F4158
:1004800041413E7F494949417F090909013E4141B6
:1004900051737F0808087F00417F41002040413FA1
:1004A000017F081422417F404040407F021C027FB0
:1004B0007F0408107F3E4141413E7F090909063E05
:1004C0004151215E7F0919294626494949320301D4
:1004D0007F01033F4040403F1F2040201F3F4038E6
:1004E000403F631408146303047804036159494DC1
:1004F00043007F4141410204081020004141417FF7
:10050000040201020440404040400003070800206C
:10051000545478407F28444438384444442838446C
:1005200044287F385454541800087E090218A4A4A3
:100530009C787F0804047800447D40002040403DC2
:10054000007F1028440000417F40007C047804783C
:100550007C080404783844444438FC1824241818CF
:10056000242418FC7C08040408485454542404042B
:100570003F44243C4040207C1C2040201C3C403018
:10058000403C44281028444C9090907C4464544C47
:1005900044000836410000007700000041360800A2
:1005A00002010204023C2623263C1EA1A161123A4C
:1005B0004040207A38545455592155557941225498
:1005C000547842215554784020545579400C1E529D
:1005D0007212395555555939545454593955545442
:1005E000580000457C410002457D420001457C40A9
:1005F0007D1211127DF0282528F07C5455450020ED
:1006000054547C547C0A097F4932494949323A445E
:1006100044443A324A4848303A4141217A3A4240C9
:100620002078009DA0A07D3D4242423D3D4040409B
:100630003D3C24FF2424487E4943662B2FFC2F2B6E
:10064000FF0929F620C0887E09032054547941000F
:1006500000447D413048484A32384040227A007A8E
:100660000A0A727D0D19317D2629292F282629296C
:10067000292630484D40203808080808080808088E
:10068000382F10C8ACBA2F102834FA00007B0000B5
:1006900008142A142222142A14085500550055AAB9
:1006A00055AA55AAFF55FF55FF000000FF00101086
:1006B00010FF00141414FF001010FF00FF1010F0C2
:1006C00010F0141414FC001414F700FF0000FF00D5
:1006D000FF1414F404FC141417101F10101F101F23
:1006E0001414141F00101010F0000000001F101050
:1006F00010101F10101010F010000000FF1010104C
:10070000101010101010FF10000000FF140000FF68
:1007100000FF00001F10170000FC04F41414171051
:10072000171414F404F40000FF00F7141414141444
:100730001414F700F7141414171410101F101F14BA
:100740001414F4141010F010F000001F101F00001B
:10075000001F14000000FC140000F010F01010FF47
:1007600010FF141414FF141010101F00000000F0EC
:1007700010FFFFFFFFFFF0F0F0F0F0FFFFFF0000C1
:10078000000000FFFF0F0F0F0F0F3844443844FCE8
:100790004A4A4A347E02020606027E027E026355FF
:1007A0004941633844443C04407E201E2006027EBA
:1007B000020299A5E7A5991C2A492A1C4C720172CC
:1007C0004C304A4D4D303048784830BC625A463D36
:1007D0003E494949007E0101017E2A2A2A2A2A44EB
:1007E000445F444440514A444040444A5140000020
:1007F000FF0103E080FF000008086B6B083612362B
:100800002436060F090F060000181800000010100B
:10081000003040FF0101001F01011E00191D1712C9
:10082000003C3C3C3C0000000000BA090D17B51923
:1008300011241FBECFEFD1E2DEBFCDBF00E00CBF61
:1008400015E0A0E0B2E0EEE6F2E700E00BBF02C088
:1008500007900D92A03EB107D9F72AE1A0EEB5E0CE
:1008600001C01D92AF3CB207E1F714E0C8E1D4E04B
:1008700000E006C021970109802FFE010E94043983
:10088000C531D10780E00807A9F70E940E0C0C942F
:1008900089380C9400002F923F924F925F926F9292
:1008A0007F928F929F92AF92BF92CF92DF92EF9200
:1008B000FF920F931F93CF93DF93CDB7DEB7CA5448
:1008C000D1090FB6F894DEBF0FBECDBF1C014B019E
:1008D0002A0139011EAF0DAF2196FFAEEEAE219772
:1008E0002396BFAEAEAE23970DB71EB725961FAFAA
:1008F0000EAF25978E01045E1F4FC8010E94861A15
:1009000021E0A10169E778E1CE0101960E94331947
:100910008B819C819F8F8E8F8D819E81AF81B885C9
:1009200088A399A3AAA3BBA389859A85AB85BC8517
:100930008CA39DA3AEA3BFA38DE0FE013D96DE0177
:10094000989601900D928A95E1F78A8D9B8D9EABCA
:100950008DABC8010E940E1BF82ECE0101960E949D
:10096000991AFF20C1F05601AA0CBB1CC301A0E0DC
:10097000B0E08FAB98AFA9AFBAAFE12CF12CC201B8
:10098000A0E0B0E029968CAF9DAFAEAFBFAF299786
:10099000702E612E2DC06BE072E087E396E10E941D
:1009A000FF12B10187E396E10E94FF1267E287E33D
:1009B00096E10E942E13A9C0D401ED91FC9102880A
:1009C000F389E02DC40119950FB6F8945EBE0FBEF1
:1009D0004DBEBFEFEB1AFB0A0FA918AD29AD3AAD1A
:1009E0000F5F1F4F2F4F3F4F0FAB18AF29AF3AAFDD
:1009F00023962EAD3FAD2397E216F30609F47EC091
:100A00004DB65EB6ADB7BEB7AA19BB090FB6F8941E
:100A1000BEBF0FBEADBFEDB7FEB73196FCAFEBAFBB
:100A2000F101A2A9B3A92FA938AD49AD5AAD0E94D1
:100A30002A3929960CAD1DAD2EAD3FAD2997060F75
:100A4000171F281F391FB901A801440F551F661F22
:100A5000771F872D962D0E94A41AA5016BAD7CAD42
:100A6000872D962D0E949A1A8A159B0581F06CE1BC
:100A700072E087E396E10E941C13872D962D0E9459
:100A8000FC1A0FB6F8945EBE0FBE4DBE3EC0D40138
:100A9000ED91FC910680F781E02DC401199501E0EC
:100AA00010E0960121964EAD5FAD21974E0D5F1D72
:100AB0006DAD7EADC4010E9438350BAD1CAD20E09C
:100AC00030E02C153D0509F477CFF8016191719163
:100AD0008F01762767277627C4012A962FAF2A979A
:100AE0002B963FAF2B970E94E9352A962FAD2A9778
:100AF0002B963FAD2B972F5F3F4FE3CFCE014C9608
:100B00000E94FC1ACE014C9602C0CE014C960E9467
:100B1000991A25968EAD9FAD25970FB6F8949EBF76
:100B20000FBE8DBFC65BDF4F0FB6F894DEBF0FBEA2
:100B3000CDBFDF91CF911F910F91FF90EF90DF908C
:100B4000CF90BF90AF909F908F907F906F905F906D
:100B50004F903F902F900895AF92BF92CF92DF9227
:100B6000EF92FF920F931F93282FCB01BA01022E11
:100B7000000C330BD90144E0AA0FBB1F4A95E1F7E3
:100B8000A05DBD4F1496AD90BD90CD90DC901797B1
:100B9000220F331FF901E052FC4FE080F1800F2C4F
:100BA000000C000B110BFD013C9623812F93228139
:100BB0002F9321812F931C962C912F9320E030E0CE
:100BC000A9010E94DF170F900F900F900F901F91B7
:100BD0000F91FF90EF90DF90CF90BF90AF9008956E
:100BE000AF92BF92CF92DF92EF92FF920F931F933B
:100BF000282FCB01BA01022E000C330BD90144E09F
:100C0000AA0FBB1F4A95E1F7A05DBD4FAD90BD9007
:100C1000CD90DC901397220F331FF901EC52FC4F5B
:100C2000E080F1800F2C000C000B110BFD013896B9
:100C300023812F9322812F9321812F9318962C911A
:100C40002F9320E030E0A9010E94DF170F900F9052
:100C50000F900F901F910F91FF90EF90DF90CF902A
:100C6000BF90AF9008954F925F926F927F92AF9234
:100C7000BF92CF92DF92EF92FF920F931F93282F94
:100C8000CB01BA01A22F220FBB0BFD0124E0EE0F16
:100C9000FF1F2A95E1F7E05DFD4FE484F5840685AA
:100CA00017852481358146815781FD01EE0FFF1F95
:100CB000E052FC4F0190F081E02D2F01FF0F6608FC
:100CC00077087F926F925F924F92A12CB12C6501B1
:100CD0000E94DF170F900F900F900F901F910F91B0
:100CE000FF90EF90DF90CF90BF90AF907F906F908C
:100CF0005F904F9008954F925F926F927F92AF9264
:100D0000BF92CF92DF92EF92FF920F931F93282F03
:100D1000CB01BA01A22F220FBB0BFD0124E0EE0F85
:100D2000FF1F2A95E1F7E05DFD4FE084F184028525
:100D300013852081318142815381FD01EE0FFF1F18
:100D4000EC52FC4F0190F081E02D2F01FF0F66085F
:100D500077087F926F925F924F92A12CB12C650120
:100D60000E94DF170F900F900F900F901F910F911F
:100D7000FF90EF90DF90CF90BF90AF907F906F90FB
:100D80005F904F900895E3E1F6E08281938184596A
:100D90009F4F2081318120563F4F36832583908796
:100DA00087830895E3E1F6E082E084838FE593E0B2
:100DB0009183808383E993E0938382830C94C306B9
:100DC000209113063091140637FD12C0E0911706EA
:100DD000EE0FFF0BE052FC4F80819181AC014F532D
:100DE00051402417350734F09C012054314002C093
:100DF00020E030E0809115069091160697FD12C014
:100E0000E0911706EE0FFF0BEC52FC4F4081518131
:100E1000BA01675D71098617970734F0CA01885DCA
:100E2000910902C080E090E03093140620931306ED
:100E300090931606809315060895E3E1F6E0858108
:100E40009681805A910991838083878190858C5601
:100E50009109938382830C94E006E3E1F6E04781F5
:100E6000508522813381A581B6810190F081E02DEA
:100E7000BD016E1B7F0BCA01821B930B0895AF92BD
:100E8000BF92CF92DF92EF92FF920F931F93E3E115
:100E9000F6E02281338140815181618572858481B0
:100EA000E6E38E02C0011124E8EDAE2EB12CF0E491
:100EB000CF2EDD24D394E12CF12C00E010E08057FC
:100EC0009D4F0E944B041F910F91FF90EF90DF9078
:100ED000CF90BF90AF900895AF92BF92CF92DF9224
:100EE000EF92FF920F931F930E942D077C0123E046
:100EF000E21AF1088B0103501109E3E1F6E02781C2
:100F00003085235031094581568143505109A185CF
:100F1000B285848166E38602C001112467E0A62EB3
:100F2000B12C77E0C72ED12CBD0180579D4F0E9478
:100F30004B041F910F91FF90EF90DF90CF90BF90E7
:100F4000AF9008950F931F930E942D0700E018EFB4
:100F500023E030E0AC0180911C0690911D060E94B8
:100F6000972D1F910F910895E3E1F6E0DC014D917B
:100F70005C91119760EA649F9001659F300D112488
:100F800040815181240F351F3183208312962D918A
:100F90003C9113974CE6429FC001439F900D112452
:100FA00022813381820F931F938382830C94E00606
:100FB000CF92DF92EF92FF920F931F93CF93DF9325
:100FC0006C01C3E1D6E089859A85DC01ED91FC9145
:100FD000048CF58DE02D20EEE22E27E0F22E08E1C4
:100FE00010E020E431E048ED50E060E070E0199559
:100FF0006FE178EF89859A850E94D6304CED50E0FC
:1010000065E070E089859A850E94CA3062E0898532
:101010009A850E94D030B60189859A85DF91CF915B
:101020001F910F91FF90EF90DF90CF900C941C13C5
:10103000CF92DF92EF92FF920F931F93CF93DF93A4
:10104000CDB7DEB728970FB6F894DEBF0FBECDBF81
:1010500083E1E82E86E0F82EF70145815681052EC2
:10106000000C660B770B84810E94AC05162FC72EEF
:10107000D82E092FF70147815085052E000C660BED
:10108000770B84810E94F005212F3C2D4D2D502F90
:1010900028960FB6F894DEBF0FBECDBFDF91CF917B
:1010A0001F910F91FF90EF90DF90CF900895809166
:1010B000180690911906863091058CF0E09117067C
:1010C000EE0FFF0BE052FC4F20813181A90145500A
:1010D0005109841795072CF0C901069702C086E0D4
:1010E00090E0909319068093180680911A069091CB
:1010F0001B06863091058CF0E0911706EE0FFF0B72
:10110000EC52FC4F20813181A901455051098417CF
:1011100095072CF0C901069702C086E090E09093F5
:101120001B0680931A0608958F929F92AF92BF92EA
:10113000CF92DF92EF92FF92CF93DF932091170629
:10114000422F022E000C550B840F951F86309105FF
:1011500014F085E090E0EC0197FF02C0C0E0D0E021
:10116000C417D50709F43FC040911A0650911B06D9
:10117000052E000C660B770B822F0E94F0056B0189
:101180007C018091180690911906AC01990F660BAD
:10119000770B809117060E94AC054B015C01B701EB
:1011A000A6018C2F0E947B066B017C01B501A40176
:1011B0008C2F0E9433067093190660931806D09204
:1011C0001B06C0921A06C09317060E945708DF91AB
:1011D000CF91FF90EF90DF90CF90BF90AF909F9016
:1011E0008F900C941D07DF91CF91FF90EF90DF90CF
:1011F000CF90BF90AF909F908F900895CF93DF9343
:1012000000D01F92CDB7DEB7FC01809118069091F7
:10121000190620813181280F391F30931906209338
:10122000180620911A0630911B0682819381820F45
:10123000931F90931B0680931A060E9457080E94E2
:101240002D071A8219821C821B82653071051CF4DD
:101250002FEF3FEF05C06C33714024F021E030E008
:101260003A832983853091051CF48FEF9FEF05C0E9
:10127000843D910524F081E090E09C838B838981FB
:101280009A81892B21F48B819C81892B39F081E013
:1012900080932506CE0101960E94B4070F900F900F
:1012A0000F900F90DF91CF9108950F931F93CF93DD
:1012B000DF9300D01F92CDB7DEB782E00E94991273
:1012C00021E0892B09F020E02093220683E00E9490
:1012D000991221E0892B09F020E02093230688E071
:1012E0000E94991221E0892B09F020E02093240626
:1012F00087E30E94B6112091200630912106821BBF
:10130000930B97FDCF968C0136E0159507953A958E
:10131000E1F786E30E94B61120911E0630911F0668
:10132000821B930B97FDCF9626E0959587952A957E
:10133000E1F71C830B8322273327281B390B3A83C1
:101340002983232B11F4012B61F00E946C07CE013D
:1013500001960E94FE0880912506811102C00E941C
:10136000A2070F900F900F900F90DF91CF911F91D8
:101370000F910895109214061092130610921606FB
:1013800010921506109219061092180610921B065C
:1013900010921A0610921F0610921E061092210635
:1013A00010922006E3E1F6E0158A168A178A108E5D
:1013B000118E128E138E148E389685E1E33BF8075A
:1013C00099F72FEF49E06AE080EE95E00C940F3238
:1013D000CF93DF930E94541162E082E00E942D12AD
:1013E00062E083E00E942D1262E088E00E942D12EC
:1013F00087E30E94B611EC0186E30E94B611909338
:101400001F0680931E06D0932106C093200640E855
:1014100055E260E070E087E396E10E94851687E37D
:1014200096E10E945614109227061092260680EE2E
:1014300095E090931D0680931C0640E050E0BA01B1
:101440000E94D03280911C0690911D06DC01ED9126
:10145000FC910488F589E02D63E0199580911C06C4
:1014600090911D06DC01ED91FC91068CF78DE02D2D
:101470006FE170E0199566E089E798E10E94201815
:10148000811119C06CEE73E087E396E10E941C1392
:1014900068E174E087E396E10E941C1367E374E05F
:1014A00087E396E10E941C1361E574E087E396E10F
:1014B0000E941C13FFCF0E94D2060E943F070E9489
:1014C000A2078CE894E0DF91CF910C94D8073F926B
:1014D0004F925F926F927F928F929F92AF92BF9244
:1014E000CF92DF92EF92FF920F931F93CF93DF93F0
:1014F000CDB7DEB764970FB6F894DEBF0FBECDBF91
:1015000029833A834B835C836D837E838F839887A3
:10151000A986BA86CB86DC86ED86FE860F87188B79
:1015200062E974E087E396E10E941C1388248394A7
:10153000912CC12CD12C7601A12CB12C412C512CF9
:101540003201312C00E010E087E396E10E940A149A
:10155000892BD1F30430110519F541E050E06BE916
:1015600074E087E396E10E94C21287E396E16496F5
:101570000FB6F894DEBF0FBECDBFDF91CF911F91A4
:101580000F91FF90EF90DF90CF90BF90AF909F9022
:101590008F907F906F905F904F903F900C94561477
:1015A0000330110509F08AC0C50133E0880F991F87
:1015B0003A95E1F79C01245D394F3C8B2B8B87E3F7
:1015C00096E10E943614E82F8A30E1F53C2D2D2D4E
:1015D0009E2D8F2D332009F417C1F50123E0EE0F66
:1015E000FF1F2A95E1F7ED5EF94FF094E094D09457
:1015F000C094C11CD11CE11CF11CC58AD68AE78AA3
:10160000F08E3FEFA31AB30AC5010B2C000CAA0BF6
:10161000BB0B84159505A605B70539F4A12CB12C93
:10162000412C512C320104E010E061E487E396E1A3
:101630000E94611488248394912C30E020E090E093
:1016400080E0E2C08F3F09F4BACF877F853209F48A
:10165000B6CFE73519F433243394B1CFE032C9F46F
:1016600041E08416910419F4812C912CA8CF8114A7
:10167000910479F4332069F0EB89FC89C082D1822E
:10168000E282F38282E0882E912CC12CD12C76014B
:1016900096CFAAE0B0E0A70196010E942A39CE2E8B
:1016A000EE0FDD08F0E3CF1AD1080D2C000CEE0888
:1016B000FF08C60ED71EE81EF91E81CF01301105A6
:1016C00009F053C0412C512C320187E396E10E946E
:1016D0003614E82F8A30B1F4332009F435CF4114A1
:1016E00051046104710409F495C050922706409298
:1016F000260661E487E396E10E946114312C03E041
:1017000010E022CF8F3F09F38532F9F28E3419F4BD
:1017100033243394DACF8032C1F2AAE0B0E0A301DF
:1017200092010E942A392E2FEE0F330B290140E33C
:10173000441A5108052C000C66087708460E571EFF
:10174000681E791E0E94FD10E989FA896E1B7F0BC5
:10175000613177420CF0F8CE24EF421621E05206B8
:10176000610471040CF4B1CFEFCE0115110509F03D
:10177000EBCE6DE974E087E396E10E94FF124D81A4
:101780005E816F8178852AE030E087E396E10E94F0
:10179000961365E075E087E396E10E94FF124981A8
:1017A0005A816B817C812AE030E087E396E10E94D8
:1017B000961365E075E087E396E10E94FF124D8580
:1017C0005E856F8578892AE030E087E396E10E94A4
:1017D000961365E075E087E396E10E94FF12498564
:1017E0005A856B857C852AE030E087E396E10E948C
:1017F000F71387E396E10E9456140E94FD107A8B3E
:10180000698B01E010E0A0CEC32ED22EE92EF82E77
:10181000312C9ACE312C04E010E096CECF93DF939A
:10182000CDB7DEB7E8970FB6F894DEBF0FBECDBFD9
:101830000E94E809212C1D8E1E8E1F8E312C18A2AD
:1018400019A21AA200E010E01092220610922306BC
:1018500010922406109225060E94550980912206B6
:10186000882349F081E090E00E9494084424439446
:10187000409225060CC080912306882341F08FEF0B
:101880009FEF0E949408552453945092250680910E
:101890002406882309F433C4012B09F062C00E9496
:1018A0001808322E38A349A35AA3262E7D8F8E8F77
:1018B0009F8F80EA94E00E94D80764EA74E087E38F
:1018C00096E10E94FF122AE030E0432D58A169A161
:1018D0007AA187E396E10E94961366EC74E087E3B1
:1018E00096E10E94FF122AE030E0422D5D8D6E8D60
:1018F0007F8D87E396E10E94961368EC74E087E39E
:1019000096E10E94FF12432D58A169A17AA180910E
:1019100017060E943306AB01BC012AE030E087E3E2
:1019200096E10E94961366EC74E087E396E10E94CC
:10193000FF12422D5D8D6E8D7F8D809117060E9466
:101940007B06AB01BC012AE030E087E396E10E9410
:10195000F71388E00E949912892BD9F301E010E077
:10196000CEC30E94180829833A834B835C836D831E
:101970007E838F83988769807A808B809C806BA61A
:101980007CA68DA69EA68D809E80AF80B8848BA2FB
:101990009CA2ADA2BEA267EE74E087E396E10E942E
:1019A000FF122AE030E04BA55CA56DA57EA587E37C
:1019B00096E10E94961366EC74E087E396E10E943C
:1019C000FF122AE030E04BA15CA16DA17EA187E36C
:1019D00096E10E94961368EC74E087E396E10E941A
:1019E000FF124BA55CA56DA57EA5809117060E94F0
:1019F0003306AB01BC012AE030E087E396E10E94A8
:101A0000961366EC74E087E396E10E94FF124BA107
:101A10005CA16DA17EA1809117060E947B06AB019F
:101A2000BC012AE030E087E396E10E94F71387E0EB
:101A300095E00E94D8076FE175E087E396E10E9488
:101A4000FF1260911706062E000C770B4AE050E05B
:101A500087E396E10E94E013232D398698A09A86A9
:101A600049A04B865AA05C86622D2D866D8C6E86B1
:101A70007E8C7F868F8C888AA980BA80CB80DC8020
:101A8000ED80FE800F811885392DA201762D872DDE
:101A9000982D0E94670A422D5D8D6E8D7F8D8091FD
:101AA00017060E947B064B015C01E0901506F09042
:101AB0001606FA8AE98A432D58A169A17AA1809174
:101AC00017060E94330640911306509114068A01AE
:101AD000550F220B330B6B017C01C01AD10AE20AAD
:101AE000F30A40912C0650912D0660912E067091BC
:101AF0002F06809117060E947B066D8B7E8B8F8B45
:101B0000988F00911506109116061A8F098F409133
:101B100028065091290660912A0670912B06809123
:101B200017060E9433062B013C0140911306509189
:101B300014068A01052E000C220B330BD701C601B7
:101B4000800F911FA21FB31F80179107A207B30731
:101B50000CF4B9C0405C5E4F6A01550FEE08FF08F7
:101B6000C816D906EA06FB060CF4ADC0409115066E
:101B70005091160658A74FA3052E000C660B770B45
:101B8000E989FA89CF01FF0FAA0BBB0B881A990AC2
:101B9000AA0ABB0A840E951EA61EB71E84169506B9
:101BA000A606B7060CF48FC08FA198A588529F4F48
:101BB000092E000CAA0BBB0B88159905AA05BB05BD
:101BC0000CF481C040165106620673060CF47BC00B
:101BD000C414D504E604F7040CF475C0498C5A8C7F
:101BE0008201550C220B330BCD88DE88EF88F88CF0
:101BF000C01AD10AE20AF30AC40ED51EE61EF71E69
:101C0000C416D506E606F7060CF45DC08C159D05D6
:101C1000AE05BF050CF457C0E0911C06F0911D06FF
:101C20000190F081E02D80A091A040912C06509170
:101C30002D0660912E0670912F06809117060E9446
:101C40007B0620911506309116068B01021B130BA3
:101C5000409128065091290660912A0670912B0622
:101C6000809117060E9433062091130630911406C6
:101C70005B01A21AB30A422D5D8D6E8D7F8D80911E
:101C800017060E947B0620911506309116066B01FF
:101C9000C21AD30A432D58A169A17AA180911706CF
:101CA0000E9433062091130630911406621B730BB9
:101CB000EFE1EE2EF12C9501A60180911C0690918A
:101CC0001D06F401199503E116E01A8B098B1E8A93
:101CD0001D8A809126069091270601974D885E887F
:101CE000481659060CF0FBC0A989BA8959964D913E
:101CF0005D916D917C915C97809117060E947B06A7
:101D00006B017C010091150610911606E989FA898C
:101D1000458956896789708D809117060E94330620
:101D200020911306309114064901330FAA08BB080D
:101D30002B013C01481859086A087B084FA658AA8D
:101D400069AA7AAA2D893E892F5F3F4F3E8B2D8B42
:101D5000A989BA8991964D915D916D917C919497E5
:101D6000809117060E947B066BAB7CAB8DAB9EAB64
:101D7000409015065090160658AE4FAAA989BA8908
:101D80005D964D915D916D917C9190978091170634
:101D90000E943306698F7A8F8B8F9C8F6091130618
:101DA000709114069B01072E000C440B550B8FA558
:101DB00098A9A9A9BAA9820F931FA41FB51F8217BA
:101DC0009307A407B5070CF483C0605C7E4F4B01FA
:101DD000770FAA08BB0888169906AA06BB060CF45A
:101DE00077C0C801110FAA0BBB0B26013701481A97
:101DF000590A6A0A7B0A4FA258A669A67AA6809158
:101E00001506909116066C01092E000CEE08FF08CD
:101E10004C0C5D1C6E1C7F1C4C145D046E047F0416
:101E20000CF456C088529F4F092E000CAA0BBB0B16
:101E300084159505A605B7050CF44AC0498C5A8C43
:101E40006B8C7C8C42165306640675060CF440C0FD
:101E500084149504A604B704DCF16FA878AC4301A0
:101E6000770CAA08BB084BA85CA86DA87EA84818E8
:101E700059086A087B08530142018C0C9D1CAE1C5A
:101E8000BF1C8C149D04AE04BF0414F18815990581
:101E9000AA05BB05ECF080911C0690911D06DC01A3
:101EA000ED91FC91898C9A8CAB8CBC8C821A930A34
:101EB000A40AB50AA501940100A0F1A1E02D7FE1DB
:101EC000E72EF12C82014FA158A56FA578A919958D
:101ED00009891A89085F1F4F1A8B098BFACE53E0C4
:101EE000880F991F5A95E1F7FC01ED5EF94F418D7E
:101EF000528D638D748D809117060E947B066B0155
:101F00007C010091150610911606E0912606F091CD
:101F1000270663E0EE0FFF1F6A95E1F7E55FF94FD3
:101F2000458956896789708D809117060E9433060E
:101F300020911306309114064901330FAA08BB08FB
:101F40002B013C01481859086A087B084FA258A683
:101F500069A67AA64BA15CA16DA17EA1809117060E
:101F60000E947B06698B7A8B8B8B9C8B609015060D
:101F7000709016067E8A6D8A4BA55CA56DA57EA520
:101F8000809117060E9433069B01AC0160911306F5
:101F9000709114062B01072E000C660877088FA19C
:101FA00098A5A9A5BAA5840D951DA61DB71D8415D4
:101FB0009505A605B7050CF49BC0605C7E4F4B01F0
:101FC000770FAA08BB088BA69CA6ADA6BEA688164E
:101FD0009906AA06BB060CF48BC04801110FAA088B
:101FE000BB08C701B601681979098A099B09698F7D
:101FF0007A8F8B8F9C8F60911506709116066B01FE
:10200000072E000CEE08FF08898D9A8DAB8DBC8DD4
:102010008C0D9D1DAE1DBF1D8BA39CA3ADA3BEA3A8
:102020008C159D05AE05BF050CF462C0CB0188522E
:102030009F4F4C01990FAA08BB088FA698AAA9AA7E
:10204000BAAA6BA17CA18DA19EA186169706A806AF
:10205000B9060CF44DC024153505460557050CF49A
:1020600047C08BA59CA5ADA5BEA582179307A40765
:10207000B507F4F18D889E88092C000CAA08BB08CE
:1020800069897A898B899C89681979098A099B09E8
:10209000698B7A8B8B8B9C8B4B015C018C0C9D1C10
:1020A000AE1CBF1C8C149D04AE04BF040CF18FA5A4
:1020B00098A9A9A9BAA988159905AA05BB05C4F0CC
:1020C00080911C0690911D06DC01ED91FC91241974
:1020D00035094609570900A0F1A1E02D4FE1E42E92
:1020E000F12C09891A89498D5A8D6FA178A5199506
:1020F00088E00E949912892BD9F300E010E08091CA
:102100002506882309F4A0CB6DE275E087E396E10C
:102110000E94FF1260911306709114064AE050E08D
:1021200087E396E10E94E0136AE475E087E396E1B5
:102130000E94FF1260911506709116064AE050E069
:1021400087E396E10E94E0130115110519F48CE86C
:1021500094E002C080EA94E00E94D8070E943F0702
:102160000E94A20771CB1F920F920FB60F921124FB
:102170002F933F938F939F93AF93BF938091C915F4
:102180009091CA15A091CB15B091CC153091C8157E
:1021900023E0230F2D3720F40196A11DB11D05C0AA
:1021A00026E8230F0296A11DB11D2093C815809328
:1021B000C9159093CA15A093CB15B093CC158091F7
:1021C000CD159091CE15A091CF15B091D015019657
:1021D000A11DB11D8093CD159093CE15A093CF1561
:1021E000B093D015BF91AF919F918F913F912F9157
:1021F0000F900FBE0F901F9018952FB7F894609115
:10220000C9157091CA158091CB159091CC152FBF2F
:1022100008953FB7F8948091CD159091CE15A09177
:10222000CF15B091D01526B5A89B05C02F3F19F04A
:102230000196A11DB11D3FBFBA2FA92F982F882746
:10224000820F911DA11DB11DBC01CD0142E0660FA1
:10225000771F881F991F4A95D1F70895CF92DF9273
:10226000EF92FF92CF93DF936B017C010E940911E3
:10227000EB01C114D104E104F10479F00E940911C9
:102280006C1B7D0B683E7340A0F381E0C81AD10837
:10229000E108F108C851DC4FECCFDF91CF91FF90FE
:1022A000EF90DF90CF900895789484B5826084BDDC
:1022B00084B5816084BD85B5826085BD85B581604A
:1022C00085BDEEE6F0E0808181608083E1E8F0E0AA
:1022D0001082808182608083808181608083E0E8D9
:1022E000F0E0808181608083E1EBF0E080818460B8
:1022F0008083E0EBF0E0808181608083E1E9F0E0C1
:10230000808182608083808181608083E0E9F0E069
:10231000808181608083E1EAF0E080818260808357
:10232000808181608083E0EAF0E080818160808349
:10233000E1E2F1E08081826080838081816080833E
:10234000E0E2F1E0808181608083EAE7F0E0808173
:1023500084608083808182608083808181608083CB
:102360008081806880831092C1000895863308F0D0
:10237000865390917B00282F2870977F922B909303
:102380007B0087702091000290E4299F9001112426
:10239000822B80937C0080917A00806480937A0005
:1023A00080917A0086FDFCCF8091780020917900A1
:1023B00090E0922B089590E0FC013197E131F10516
:1023C00008F04AC08827EE58FF4F8F4F0C9404390D
:1023D000809180008F7703C0809180008F7D8093F3
:1023E0008000089584B58F7702C084B58F7D84BD49
:1023F00008958091B0008F7703C08091B0008F7DE9
:102400008093B0000895809190008F7707C08091ED
:1024100090008F7D03C080919000877F8093900013
:1024200008958091A0008F7707C08091A0008F7DD4
:1024300003C08091A000877F8093A00008958091C1
:1024400020018F7707C0809120018F7D03C080918C
:102450002001877F809320010895CF93DF9390E040
:10246000FC01E05CFD4F2491FC01EA57FD4F849193
:10247000882361F190E0880F991FFC01E050FD4F27
:10248000C591D491FC01EA51FD4FA591B491611120
:1024900009C09FB7F8948881209582238883EC91A6
:1024A0002E230BC0623061F49FB7F8943881822FDD
:1024B000809583238883EC912E2B2C939FBF06C09D
:1024C0008FB7F894E8812E2B28838FBFDF91CF91AF
:1024D00008951F93CF93DF93282F30E0F901E65042
:1024E000FE4F8491F901E05CFD4FD491F901EA5768
:1024F000FD4FC491CC23C9F0162F81110E94DB112E
:10250000EC2FF0E0EE0FFF1FEA51FD4FA591B491C3
:102510008FB7F894111105C09C91ED2FE095E92338
:1025200002C0EC91ED2BEC938FBFDF91CF911F9107
:102530000895CF93DF93282F30E0F901E650FE4F46
:102540008491F901E05CFD4FD491F901EA57FD4F08
:10255000C491CC2391F081110E94DB11EC2FF0E0AB
:10256000EE0FFF1FE453FD4FA591B491EC91ED23C5
:1025700081E090E021F480E002C080E090E0DF9113
:10258000CF910895CF92DF92EF92FF920F931F9316
:10259000CF93DF936C01EB017B01E40EF51E00E0AD
:1025A00010E0CE15DF0561F06991D601ED91FC9147
:1025B0000190F081E02DC6011995080F191FF1CF88
:1025C000C801DF91CF911F910F91FF90EF90DF90A5
:1025D000CF9008956115710579F0FB0101900020FD
:1025E000E9F73197AF01461B570BDC01ED91FC91E8
:1025F0000280F381E02D199480E090E008950C941E
:10260000EA12DC01ED91FC910190F081E02D19942A
:102610000F931F93CF93DF93EC016DE00E940113A2
:102620008C016AE0CE010E940113800F911FDF919F
:10263000CF911F910F9108950F931F93CF93DF9325
:10264000EC010E94EA128C01CE010E940813800F57
:10265000911FDF91CF911F910F9108950F931F93B9
:10266000CF93DF93EC010E9401138C01CE010E94F5
:102670000813800F911FDF91CF911F910F91089543
:102680008F929F92AF92BF92CF92DF92EF92FF9282
:102690000F931F93CF93DF93CDB7DEB7A1970FB6FC
:1026A000F894DEBF0FBECDBF6C01142FE52FCB0118
:1026B000022F19A2223008F40AE07E0121E2E20E84
:1026C000F11C802E912CA12CB12C612F7E2FA50105
:1026D00094010E94C338029F1019112481E0E81A66
:1026E000F1081A3014F4105D01C0195CF701108371
:1026F000122FE32FCA01232B242B252B31F7B701EF
:10270000C6010E94EA12A1960FB6F894DEBF0FBE72
:10271000CDBFDF91CF911F910F91FF90EF90DF9090
:10272000CF90BF90AF909F908F900895CF92DF92FF
:10273000EF92FF920F931F93CF93DF93EC016A0107
:102740007B012115310579F4E881F9810190F0814F
:10275000E02D642FDF91CF911F910F91FF90EF90AB
:10276000DF90CF9019942A303105E9F477FF1AC031
:102770006DE20E9401138C0144275527BA014C19C0
:102780005D096E097F092AE0CE010E944013800F87
:10279000911FDF91CF911F910F91FF90EF90DF90EC
:1027A000CF9008952AE0B701A601CE01DF91CF9125
:1027B0001F910F91FF90EF90DF90CF900C944013FA
:1027C0000F931F93CF93DF93EC019A01AB01770F27
:1027D000660B770B0E9496138C01CE010E940813A2
:1027E000800F911FDF91CF911F910F9108950F934B
:1027F0001F93CF93DF93EC010E9496138C01CE01BF
:102800000E940813800F911FDF91CF911F910F91AC
:1028100008950895FC0124853585F901E05CFF4F9A
:1028200080819181329620813181821B930B8F733D
:1028300099270895DC011C96ED91FC911D97DF010D
:10284000A05CBF4F2D913C91119712968D919C9158
:1028500011972817390739F08D919C91E80FF91FCE
:10286000808190E008958FEF9FEF0895FC01A4858B
:10287000B585FD01E05CFF4F20813181329680817A
:1028800091812817390779F080819181A80FB91FAC
:102890008C91208131812F5F3F4F2F7333273183FC
:1028A000208390E008958FEF9FEF0895FC0181A1B0
:1028B000882329F0A489B5898C9186FFFBCF11A2CA
:1028C00008950F931F93CF93DF93FC01A685B785DF
:1028D0008D01005C1F4FE8018881998101968F73FB
:1028E0009927AD014E5B5F4FEA012881398182173C
:1028F0009307D1F3E80128813981A20FB31F6C93AC
:10290000A685B785A05CBF4F11969C938E93A68930
:10291000B7892C9181E090E0078C02C0880F991F45
:102920000A94E2F7822B8C9381E081A30488F589D5
:10293000E02D80818064808381E090E0DF91CF9101
:102940001F910F910895FB01E05CFF4F20813181C1
:102950002F5F3F4F2F733327DB01AE5BBF4F4D918E
:102960005C912417350741F040815181DB01A40FB0
:10297000B51F8C933183208308951F920F920FB659
:102980000F9211240BB60F922F933F934F935F93A7
:102990006F937F938F939F93AF93BF93EF93FF9327
:1029A0008091C00082FD07C08091C60065E378E198
:1029B0000E94A31402C08091C600FF91EF91BF91C5
:1029C000AF919F918F917F916F915F914F913F91C7
:1029D0002F910F900BBE0F900FBE0F901F90189568
:1029E0001F920F920FB60F9211240BB60F922F93D6
:1029F0003F934F935F936F937F938F939F93AF9387
:102A0000BF93EF93FF938091C80082FD07C0809130
:102A1000CE006DEA77E10E94A31402C08091CE003F
:102A2000FF91EF91BF91AF919F918F917F916F91A6
:102A30005F914F913F912F910F900BBE0F900FBE62
:102A40000F901F9018951F920F920FB60F9211249E
:102A50000BB60F922F933F934F935F936F937F9398
:102A60008F939F93AF93BF93EF93FF938091D00089
:102A700082FD07C08091D60065E277E10E94A31431
:102A800002C08091D600FF91EF91BF91AF919F91CD
:102A90008F917F916F915F914F913F912F910F9007
:102AA0000BBE0F900FBE0F901F9018951F920F92A4
:102AB0000FB60F9211240BB60F922F933F934F93A3
:102AC0005F936F937F938F939F93AF93BF93EF9396
:102AD000FF938091300182FD07C0809136016DE93E
:102AE00076E10E94A31402C080913601FF91EF911C
:102AF000BF91AF919F918F917F916F915F914F9116
:102B00003F912F910F900BBE0F900FBE0F901F9013
:102B100018951F920F920FB60F9211240BB60F92B9
:102B20002F933F938F939F93EF93FF9320913118AF
:102B30003091321880913318909134182817390742
:102B400031F48091C1008F7D8093C10014C0E09169
:102B50003318F0913418EF50F84E208180913318DB
:102B60009091341801968F7399279093341880931D
:102B700033182093C600FF91EF919F918F913F9161
:102B80002F910F900BBE0F900FBE0F901F901895B6
:102B90001F920F920FB60F9211240BB60F922F9324
:102BA0003F938F939F93EF93FF932091A9173091B9
:102BB000AA178091AB179091AC172817390731F4F9
:102BC0008091C9008F7D8093C90014C0E091AB173C
:102BD000F091AC17E759F84E20818091AB17909196
:102BE000AC1701968F7399279093AC178093AB170E
:102BF0002093CE00FF91EF919F918F913F912F9164
:102C00000F900BBE0F900FBE0F901F9018951F9244
:102C10000F920FB60F9211240BB60F922F933F9382
:102C20008F939F93EF93FF93209121173091221759
:102C300080912317909124172817390731F4809138
:102C4000D1008F7D8093D10014C0E0912317F091C3
:102C50002417EF51F94E208180912317909124176A
:102C600001968F73992790932417809323172093AD
:102C7000D600FF91EF919F918F913F912F910F90EF
:102C80000BBE0F900FBE0F901F9018951F920F92C2
:102C90000FB60F9211240BB60F922F933F938F9381
:102CA0009F93EF93FF932091991630919A168091FC
:102CB0009B1690919C162817390731F480913101A9
:102CC0008F7D8093310114C0E0919B16F0919C168A
:102CD000E75AF94E208180919B1690919C1601969F
:102CE0008F73992790939C1680939B16209336019F
:102CF000FF91EF919F918F913F912F910F900BBE7C
:102D00000F900FBE0F901F901895CF92DF92EF9209
:102D1000FF920F931F93CF93DF93EC016A017B0126
:102D20004115514E6105710509F1EC89FD8981E07C
:102D300090E008A002C0880F991F0A94E2F78083F0
:102D400060E079E08DE390E0A70196010E94C3382E
:102D500089019A01015011092109310936952795F8
:102D600017950795980101151041A8F0EC89FD8988
:102D7000108260E874E88EE190E0A70196010E945D
:102D8000C338DA01C9010197A109B109B695A79520
:102D9000979587959C01E889F9893083EA89FB89B1
:102DA000208319A2EE89FF89408181E090E09C0197
:102DB0000C8C02C0220F331F0A94E2F7242B2083CD
:102DC000EE89FF8940819C010D8C02C0220F331FC8
:102DD0000A94E2F7242B2083EE89FF8940819C012D
:102DE0000E8C02C0220F331F0A94E2F7242B20839B
:102DF000EE89FF8920810F8C02C0880F991F0A94E9
:102E0000E2F7809582238083DF91CF911F910F910C
:102E1000FF90EF90DF90CF900895CF92DF92EF92E6
:102E2000FF92E7E3F6E11382128288EEC82E83E078
:102E3000D82EE12CF12CC482D582E682F7826AE694
:102E400075E07183608385E398E19587848781EFDE
:102E500097E19787868785EC90E0918B808B84EC57
:102E600090E0938B828B80EC90E0958B848B81EC4F
:102E700090E0978B868B82EC90E0918F808F86EC30
:102E800090E0938F828F44E0448F33E0358F27E0CA
:102E9000268F95E0978F81E080A3E5E1F6E113822C
:102EA0001282C482D582E682F78271836083ADEAA2
:102EB000B7E1B587A487A9E6B7E1B787A687ADECE8
:102EC000B0E0B18BA08BACECB0E0B38BA28BA8ECE4
:102ED000B0E0B58BA48BA9ECB0E0B78BA68BAAECC5
:102EE000B0E0B18FA08FAEECB0E0B38FA28F448F73
:102EF000358F268F978F80A3E3EFF5E1138212823F
:102F0000C482D582E682F78271836083A5E2B7E14D
:102F1000B587A487A1EEB6E1B787A687A5EDB0E097
:102F2000B18BA08BA4EDB0E0B38BA28BA0EDB0E091
:102F3000B58BA48BA1EDB0E0B78BA68BA2EDB0E072
:102F4000B18FA08FA6EDB0E0B38FA28F448F358FE5
:102F5000268F978F80A3E1EDF5E113821282C48260
:102F6000D582E682F782718360836DE976E17587A9
:102F7000648769E576E17787668765E371E0718B41
:102F8000608B64E371E0738B628B60E371E0758B3F
:102F9000648B61E371E0778B668B62E371E0718F24
:102FA000608F66E371E0738F628F448F358F268F59
:102FB000978F80A3FF90EF90DF90CF9008954F926E
:102FC0005F926F927F92AF92BF92CF92DF92EF9219
:102FD000FF920F931F93CF93DF93CDB7DEB72901F5
:102FE0003A019B01AC0124193509460957098A8920
:102FF0009B89AC89BD89BC01CD016A197B098C090B
:103000009D090E94B338A801970124193509460982
:1030100057090E94E538CA01B9016A0D7B1D8C1D54
:103020009D1DDF91CF911F910F91FF90EF90DF9049
:10303000CF90BF90AF907F906F905F904F9008952A
:103040000F931F93CF93DF93EC01462F61E00E9413
:103050001823882391F08E01045F1F4F41E0BE01C9
:10306000C8010E94CE28882351F0B801CE018A966B
:103070000E94F41B91E081110AC090E008C040E07A
:10308000BE01C8010E94CE288823B9F3EECF892F54
:10309000DF91CF911F910F910895FC01DB011296F2
:1030A0008D919C911397938382838CE895E0918313
:1030B000808314968C911497848315968C91159720
:1030C000858316964D915D916D917C9119974683FC
:1030D0005783608771871A964D915D916D917C91B0
:1030E0001D9742875387648775871E964D915D9122
:1030F0006D917C91519746875787608B718B529663
:103100008C915297828B53964D915D916D917C91EC
:103110005697438B548B658B768B57964D915D916B
:103120006D917C915A97478B508F618F728F5B9610
:103130008D919C915C97948F838F08954F925F92AD
:103140006F927F928F929F92AF92BF92CF92DF92B7
:10315000EF92FF920F931F93CF93DF93CDB7DEB71C
:10316000C754D1090FB6F894DEBF0FBECDBF6C01B6
:103170005A014901665D7F4F7E018EE1E80EF11C28
:10318000C7010E944D181C821B828CE895E09A832F
:1031900089831E828501FE0131963F0127016FE27E
:1031A00070E0C8010E9499380097D9F1F801208198
:1031B0002F3219F40F5F1F4FF2CF801B8D3008F0B4
:1031C0008CE0E82EF12CA701B801CE01CB960E942D
:1031D000A438EBE3F0E0EC0FFD1FEE0DFF1D1082B5
:1031E000C3010E94701E21E0AE01455C5F4FB20139
:1031F000C3010E94A41F811109C0F601138212822B
:103200008CE895E091838083158214C00E0D1F1DFC
:10321000C2010E94701E942D852D2301692E782EE7
:10322000BECF0A191B09F40111830083B201C60144
:103230000E944D18C601C95BDF4F0FB6F894DEBF80
:103240000FBECDBFDF91CF911F910F91FF90EF90F7
:10325000DF90CF90BF90AF909F908F907F906F90B6
:103260005F904F900895CF92DF92FF920F931F933C
:10327000CF93DF93CDB7DEB7C955D1090FB6F89418
:10328000DEBF0FBECDBF6C018A01F22E9E01285A0F
:103290003F4FCE01CB960E949E186A968EAD9FAD91
:1032A0006A97080F191FF801808181110AC0BE01B9
:1032B000655C7F4FCE0101960E944D1846E755E0B0
:1032C0003EC019A218A28CE895E09F8F8E8F1BA29A
:1032D00021968FAD2197811104C0C6010E94861AE4
:1032E00034C082502F2DA801823048F463EA78E17F
:1032F000CE014E960E94A41F81110EC0EECFBE01DA
:10330000655C7F4FCE014E960E94A41F882329F34F
:10331000CE01CB960E94701E9F2D967041F049A958
:103320005AA96BA97CA9CE014E960E94931DBE019D
:10333000625E7F4FCE0101960E944D18A801BE012A
:103340006F5F7F4FC6010E94511AC601C75ADF4FF7
:103350000FB6F894DEBF0FBECDBFDF91CF911F91A6
:103360000F91FF90DF90CF900895E9E7F8E1158283
:1033700016821186138682E090E0A0E0B0E0848798
:103380009587A687B78713A215A614A68CE895E0A3
:1033900093A782A717A60895CF93DF931F92CDB767
:1033A000DEB76983DC01ED91FC910280F381E02DB1
:1033B00041E050E0BE016F5F7F4F19950F90DF91A4
:1033C000CF910895CF93DF93EC01898D9A8D00976B
:1033D00039F481E090E09B838A8380E090E00BC029
:1033E000FC01138212820E949220E98DFA8D2281C3
:1033F0003381232B71F7DF91CF910895FC01818DEB
:10340000928D009711F00C94291E0895CF93DF93AD
:103410001F92CDB7DEB741E050E0BE016F5F7F4F36
:103420000E94451C019719F4898190E002C08FEF3A
:103430009FEF0F90DF91CF910895FC01818D928DC8
:10344000009711F00C94061A8FEF9FEF08950F93D9
:103450001F93CF93DF93FC01818D928D0097B9F07C
:10346000EF010E94061A8C010F3F8FEF180791F0B1
:10347000898D9A8DFC0142855385648575854150FF
:103480005109610971090E94931DC80105C080E0BE
:1034900090E002C08FEF9FEFDF91CF911F910F91CE
:1034A0000895EF92FF920F931F93CF93DF93EC0158
:1034B0007B018A011B821A8288EE93E0A0E0B0E0D3
:1034C0008C839D83AE83BF838CE795E0998388834B
:1034D0008DE190E00E9429379A8F898F009779F0CB
:1034E0002DE1F701DC0101900D922A95E1F74CE006
:1034F00050E0B801CE010C960E94A438188EDF91DE
:10350000CF911F910F91FF90EF900895FC011382CE
:10351000128288EE93E0A0E0B0E084839583A683D6
:10352000B7838CE795E091838083128E118E148689
:1035300008950895FC01818D928D009711F00C94EF
:10354000451C80E090E00895FC01818D928D0097EC
:1035500011F00C94931D80E00895DC015996ED91D3
:10356000FC915A97309729F06285738584859585FB
:1035700008956FEF7FEFCB010895DC015996ED912F
:10358000FC915A97309729F06389748985899689C7
:10359000089560E070E0CB010895CF92DF92EF9242
:1035A000FF92CF93DF93FC01218D328D232BD9F035
:1035B000EC010E94BD1A6B017C01CE010E94AD1A84
:1035C000A7019601261B370B480B590BDA01C901DD
:1035D000811530E89307A105B10538F08FEF9FE71B
:1035E000A0E0B0E002C080E090E0DF91CF91FF90DA
:1035F000EF90DF90CF900895CF93DF93EC01898D0A
:103600009A8D009741F00E94701E898D9A8D0E94BC
:10361000BE371A8E198EDF91CF910895DC0159962D
:10362000ED91FC915A97309721F081E095819111AD
:1036300001C080E00895CF93DF93EC019C012A5FE5
:103640003F4F41E050E060E070E08B8D9C8D0E9428
:1036500063278823A1F08F89988DA98DBA8D892B36
:103660008A2B8B2B59F48E819F81A885B9858F8BEE
:10367000988FA98FBA8F8C8180688C8381E0DF91CD
:10368000CF910895CF92DF92EF92FF921F93CF9345
:10369000DF93EC010E941B1B811102C080E04AC035
:1036A000EB8DFC8DCE80DF80E884F98482E0C81A3F
:1036B000D108E108F108058404C0CC0CDD1CEE1C27
:1036C000FF1C0A94D2F786859785A089B189C80E18
:1036D000D91EEA1EFB1E148181E0C81AD108E10838
:1036E000F108112361F0C701B601610F711D811D41
:1036F000911D0E94B225882389F21150F2CFEB8DE3
:10370000FC8D80E092E0A0E0B0E0058404C0880F6A
:10371000991FAA1FBB1F0A94D2F74B895C896D8938
:103720007E89840F951FA61FB71F8B8B9C8BAD8B3B
:10373000BE8B81E0DF91CF911F91FF90EF90DF90E2
:10374000CF900895CF93DF93EC01462F6E857F8550
:10375000888999890E947725882341F08A8920E207
:10376000829FC00111248553974E02C080E090E0F3
:10377000DF91CF910895FB019B01255F3F4F40E210
:103780004193E217F307E1F7DC0190E027E08D9128
:10379000882319F18E3219F0EAE1F3E008C02A30EB
:1037A00009F198E02AE0F3CF31963817D9F0349137
:1037B0003111FACF2917B0F03FED380F3E3590F4B4
:1037C00031E0390FFB01E90FF11D9FE9980F9A31A4
:1037D00008F480528083932FDACF81E0FB0190813F
:1037E000903209F480E008950F931F93CF93DF93F5
:1037F000FC012581222311F080E042C08B01EC0105
:10380000FB0187898031B1F482E08D831F8A188E95
:10381000198E1A8E808D918DA0E0B0E025E0880F82
:10382000991FAA1FBB1F2A95D1F78B8B9C8BAD8B41
:10383000BE8B15C0803201F783E08D83FB01428D82
:10384000538D648D758D4F8B588F698F7A8F9E0144
:103850002D5E3F4FC8010E945A26882369F21C8FB3
:103860000B8F81E08C831E821F82188619861A8630
:103870001B861C861D861E861F86188A198A1A8A30
:10388000DF91CF911F910F9108952F923F924F9208
:103890005F926F927F928F929F92AF92BF92CF92E0
:1038A000DF92EF92FF920F931F93CF93DF93EC0180
:1038B0005B014A018D81811103C08FEF9FEFD7C05B
:1038C0008C8180FFFACF4B885C886D887E884A8522
:1038D0005B856C857D85C401A0E0B0E09301820129
:1038E000041B150B260B370B081719072A073B0774
:1038F00018F44201841A950A24011E0126E0220EC2
:10390000311C4114510409F47EC04A855B856C85E5
:103910007D856A0181E0D822ED818A019B0189E0E1
:1039200036952795179507958A95D1F78B8D9C8DA0
:10393000E23061F4FC01828D938DA48DB58DBC01C4
:10394000CD01600F711F821F931F3FC0FC01748067
:103950007A947022C114D104C9F4711017C0452B98
:10396000462B472B49F48F89988DA98DBA8D8E836C
:103970009F83A887B9870AC04E815F816885798552
:1039800091010E94D625882309F497CFEB8DFC8DF9
:103990008E819F81A885B9850297A109B109058407
:1039A00004C0880F991FAA1FBB1F0A94D2F746852F
:1039B000578560897189840F951FA61FB71FBC01A9
:1039C000CD01670D711D811D911D20E032E02C1984
:1039D0003D0932012415350508F439012C8126FDF5
:1039E00004C06114F2E07F0679F5009101021091A4
:1039F00002022091030230910402601771078207CE
:103A0000930719F421C0C40132C0750183019601E6
:103A1000AB01BC018091C9189091CA180E949A24E8
:103A2000882309F44ACFA60CB71C8A859B85AC85F0
:103A3000BD85860D971DA11DB11D8A879B87AC870B
:103A4000BD87461857085DCF40E00E947725882340
:103A500009F433CFF601E553F74ED501CF01860DBA
:103A6000971DE817F907F9F221912D93FACFDF910D
:103A7000CF911F910F91FF90EF90DF90CF90BF906B
:103A8000AF909F908F907F906F905F904F903F90FE
:103A90002F900895FF920F931F93CF93DF931F9260
:103AA000CDB7DEB7FC012581223018F480E090E02C
:103AB00033C08C01FC01428553856485758585E0A2
:103AC00076956795579547958A95D1F7F42FFF70AE
:103AD000FF2E41E050E0BE016F5F7F4FC8010E94A2
:103AE000451C019719F4898190E002C08FEF9FEF88
:103AF0000196E1F2F80182859385A485B5854F96FC
:103B0000A11DB11D82879387A487B587F0E2FF9E30
:103B1000C00111248553974E0F90DF91CF911F91D3
:103B20000F91FF9008958F929F92AF92BF92CF9284
:103B3000DF92EF92FF920F931F93CF93DF93EC01ED
:103B40008D81811102C080E077C00B891C892D898D
:103B50003E890417150726073707A8F36A017B017A
:103B6000823029F4CA86DB86EC86FD860DC0C1143E
:103B7000D104E104F10451F41E821F8218861986D3
:103B80001A861B861C861D8681E056C08A849B840B
:103B9000AC84BD84EB8DFC8D258530E0275F3F4FE5
:103BA000B501A4014150510961097109022E04C0F7
:103BB00076956795579547950A94D2F7D701C60130
:103BC0000197A109B10904C0B695A7959795879566
:103BD0002A95D2F784179507A607B70720F08928FA
:103BE0008A288B2849F44F89588D698D7A8D4E83A8
:103BF0005F836887798704C0841B950BA60BB70B7E
:103C00004C015D018E010A5F1F4F81149104A104D4
:103C1000B10409F4A7CF4E815F8168857985980149
:103C20008B8D9C8D0E94D62591E0891A9108A10860
:103C3000B1088111EACF87CFDF91CF911F910F910A
:103C4000FF90EF90DF90CF90BF90AF909F908F90BC
:103C500008950F931F93CF93DF93EC018D818823F9
:103C6000C9F18C8187FF30C061E0CE010E94A21BA8
:103C70008C01892B79F18D81823048F48B899C8964
:103C8000AD89BE89F801848F958FA68FB78F8F89F4
:103C9000988DA98DBA8DF801938F828FB58BA48BE7
:103CA000E091C218F091C318309759F0B8016A5EDC
:103CB0007F4FC80148961995F801808D918D938B9F
:103CC000828B8C818F778C83DF91CF911F910F91A5
:103CD0000C943C2580E0DF91CF911F910F910895C6
:103CE000CF93DF93EC010E94291E882311F01D82DF
:103CF00081E0DF91CF9108954F925F926F927F9212
:103D00008F929F92AF92BF92EF92FF920F931F9369
:103D1000CF93DF9300D01F92CDB7DEB7FC01858132
:103D20008130E9F4848181FF1AC083899489A5894F
:103D3000B68984179507A607B70788F0892B8A2BC1
:103D40008B2B09F479C04A015B017F0142845384C3
:103D500064847584CF010E94931D811102C080E0AC
:103D60006CC0F701838D948D81149104A104B1047A
:103D700071F44789508D618D728D0E947828882357
:103D800071F3F701178A108E118E128E3AC0F70167
:103D900046815781608571859E012F5F3F4F0E944C
:103DA000D6258823E1F249815A816B817C81F70114
:103DB000838D948DFC012789203129F008EF1FEFB6
:103DC0002FEF3FE004C008EF1FEF20E030E0401786
:103DD000510762077307A8F40E947828882309F422
:103DE000BECFF70146815781608571850FEF1FEFC8
:103DF0002FEF3FE0838D948D0E94C326882309F422
:103E0000AECFF701838A948AA58AB68A84818068B6
:103E10008483C7010E94291E882309F4A0CFB5011D
:103E2000A401481459046A047B0410F4B301A201EC
:103E3000C7010E94931D01C081E00F900F900F9069
:103E40000F90DF91CF911F910F91FF90EF90BF9056
:103E5000AF909F908F907F906F905F904F9008955C
:103E60001F93CF93DF93EC0180E2689FF001112450
:103E70009F012553374ED9011B969C91917129F0D2
:103E8000842F827411F080E05BC0142F6A8B8091C4
:103E9000010290910202A0910302B09104028E8768
:103EA0009F87A88BB98BE553F74E4489558960E00D
:103EB00070E0BA01552744274F8B588F698F7A8F4E
:103EC000828D938DA0E0B0E0482B592B6A2B7B2B81
:103ED0004F8B588F698F7A8FD9011B968C9188717F
:103EE00051F4848D958DA68DB78D8B8B9C8BAD8B6E
:103EF000BE8B81E00DC0803131F69E012D5E3F4FBB
:103F00008B8D9C8D0E945A26882309F4BCCF84E0B7
:103F10008D83812F8F708C831E821F821886198655
:103F20001A861B861C861D8616FF09C040E050E0DD
:103F3000BA01CE01DF91CF911F910C947C1E81E0DC
:103F4000DF91CF911F910895CF92DF92EF92FF9270
:103F50000F931F93CF93DF93CDB7DEB72C970FB698
:103F6000F894DEBF0FBECDBFFC0135813111C2C058
:103F7000D22E8B017C01BE016F5F7F4FCA010E9470
:103F8000BB1B882309F4B6C0F801838D948DF7011B
:103F9000948F838FF80116821782108611861286FD
:103FA00013861486158630E0F80182859385A485F2
:103FB000B585438954896589768984179507A6074D
:103FC000B70708F041C025E0B695A7959795879566
:103FD0002A95D1F7F82FFF70CF2EC8013C870E9499
:103FE0004A1D3C85009709F485C0FC0120812223ED
:103FF00009F484C0253E99F04BE050E0BC01CE01AD
:1040000001963C870E948C383C85892B69F68D2D62
:104010008073803309F46EC04D2D6C2D67C0311153
:104020006BC0F701C28A4091010250910202609177
:1040300003027091040246875787608B718BFC01E5
:10404000808131E08111B0CF8D2D8271823109F0F4
:1040500051C0332341F061E0C7010E94A21B8C01D3
:10406000892B79F447C0F8018581823009F442C078
:10407000C8010E94421B8823E9F1F701128A0BEC68
:1040800018E180E2F80111928A95E9F78BE0FE01D0
:104090003196D80101900D928A95E1F7E091C2180E
:1040A000F091C318309739F0B801625F7F4FC801B3
:1040B0004096199509C081E298E2F801918B808BB6
:1040C00080E098E097878687F80180899189938BB3
:1040D000828B918F808F86859785978B868B0E94A8
:1040E0003C25882339F04D2DF7016289C7010E94D4
:1040F000301F09C080E007C031E056CF332309F4F8
:1041000090CF31E0A1CF2C960FB6F894DEBF0FBE52
:10411000CDBFDF91CF911F910F91FF90EF90DF9076
:10412000CF9008952F923F924F925F926F927F921D
:104130008F929F92AF92BF92CF92DF92EF92FF92B7
:104140000F931F93CF93DF9300D01F92CDB7DEB7AD
:104150008C016B013A01DC0115968C911597813029
:10416000C9F414968C9181FF15C082FF1DC0F8011F
:10417000438954896589768982859385A485B58527
:1041800084179507A607B70779F0C8010E94931D09
:1041900081110AC081E090E0D80113969C938E9320
:1041A000129780E090E048C1430184C0D8015B963B
:1041B0008D919C915C97FC0154802FEF250D1A0185
:1041C0002B0139E056944794379427943A95D1F7C8
:1041D000522E52207A01F1E0FF22552009F476C0D8
:1041E00080E092E08E199F0954018815990508F422
:1041F0005C01D8015B962D913C915C9716968D9150
:104200009D910D90BC91A02D0297A109B109F901D2
:10421000058404C0880F991FAA1FBB1F0A94D2F7F8
:104220004685578560897189840F951FA61FB71F22
:104230009C01AD01250D311D411D511D19012A01A2
:10424000A11432E0B30609F088C080910102909178
:104250000202A0910302B091040282159305A40505
:10426000B50559F48FEF9FEFDC0180930102909325
:104270000202A0930302B09304029601B201A101CD
:104280008091C9189091CA180E94EE24882309F4DD
:1042900081CF9EEFD91A8A189B08F80182859385F1
:1042A000A485B5858A0D9B1DA11DB11D82879387AD
:1042B000A487B587D8011A964D915D916D917C9137
:1042C0001D978114910409F071CF87C0E114F104A6
:1042D00009F086CF16964D915D916D917C9119975D
:1042E000411551056105710559F457968D919D91C0
:1042F0000D90BC91A02D0097A105B10541F521C0FD
:104300009E012F5F3F4F0E94D625882309F44ACF94
:1043100089819A81AB81BC81F801238D348DF901AB
:104320002789203129F048EF5FEF6FEF7FE004C06D
:1043300048EF5FEF60E070E084179507A607B707C6
:1043400030F0C8010E941B1B81114ACF23CFF80116
:1043500086839783A087B18743CFE114F10429F5C1
:10436000D8011A964D915D916D917C911D97539650
:104370008D919D910D90BC91A02D481759076A070A
:104380007B0798F00E943C25882309F403CF2092F4
:104390000102309202024092030250920402809184
:1043A000C81881608093C81808C041E0C201B101FB
:1043B0000E947725882309F4EDCED601F701E55355
:1043C000F74ECF018A0D9B1DE817F90719F02D91C3
:1043D0002193FACFCA0CDB1C5ECF5396CD90DD90B3
:1043E000ED90FC90569714968C91C416D506E6066F
:1043F000F70640F4F801438B548B658B768B80680D
:1044000084830DC02091C2183091C318232B39F03A
:104410006114710421F08068D80114968C93F8011E
:10442000848183FD02C0C30107C0C8010E94291E08
:10443000882309F4AFCEF7CF0F900F900F900F9015
:10444000DF91CF911F910F91FF90EF90DF90CF9070
:10445000BF90AF909F908F907F906F905F904F90A4
:104460003F902F900895CF93DF931F92CDB7DEB783
:10447000698341E050E0BE016F5F7F4F0E94922050
:104480000F90DF91CF9108958EBD0DB407FEFDCF43
:1044900008958FEF0E9444228EB5089561E0FC01DB
:1044A00084810C94691260E0FC0184810C9469128F
:1044B000CF93DF93FC0186818823D1F08FEF8EBDEF
:1044C0004FEF878190859C012F5F3F4F3087278377
:1044D0008130924028F40DB407FEFDCF4EBDF1CFE0
:1044E0000DB407FEFDCFEF01CF010E944E221E82C8
:1044F000DF91CF910895673028F026E1FC012583F4
:1045000080E008958DB560FD02C0663011F48E7FA5
:1045100001C081608DBD8CB58C7F8CBD9CB562FD6A
:1045200002C080E001C082E066956170692B862B35
:104530008CBD81E008950F931F93CF93DF93EB0120
:104540000E94FD108B010E9449228F3F49F00E947A
:10455000FD10601B710B6C177D07A8F380E001C094
:1045600081E0DF91CF911F910F910895CF92DF925B
:10457000FF920F931F93CF93DF9300D01F92CDB77D
:10458000DEB76C01F62E29833A834B835C830E944D
:104590005822C6010E9453226CE271E0C6010E94BB
:1045A0009B228F2D80640E94442208E110E05C81F0
:1045B0004B813A812981DA01C901002E04C0B695E8
:1045C000A795979587950A94D2F729833A834B83C9
:1045D0005C830E9444220850110929813A814B8151
:1045E0005C81083F8FEF180731F7FF2029F0E8E0E2
:1045F000FE1204C087E803C085E901C08FEF0E9466
:10460000442210E00E944922F601828787FF04C0FD
:104610001F3F11F01F5FF6CF0F900F900F900F907C
:10462000DF91CF911F910F91FF90DF90CF90089570
:104630008F929F92AF92BF92EF92FF920F931F9330
:10464000CF93DF93EC01E62E1B8619861E821D8216
:104650004C830E94FD108B0161E08C810E942D1221
:10466000CE010E944E2260E082E30E942D1261E0A2
:1046700083E30E942D1261E084E30E942D1261E029
:1046800085E30E942D1261E085E30E94691283E5B3
:104690008CBD8DB58E7F8DBD2AE0F22E8FEF0E94EE
:1046A0004422FA94F110FACFCE010E94532220E066
:1046B00030E0A90160E0CE010E94B622F82E8A8780
:1046C00081E0F81649F00E94FD10601B710B613DFE
:1046D000774068F381E04CC02AEA31E040E050E0E6
:1046E00068E0CE010E94B62282FF02C0FB860EC0A7
:1046F00094E0F92E0E9449228A87FA94F110FACFA9
:104700008A3A11F082E034C082E08B878B85823058
:1047100021F0812C912C540105C0812C912CA12CCD
:1047200080E4B82E20E030E0A90167E3CE010E94CA
:10473000B622A501940169E2CE010E94B6228A87C1
:10474000882349F00E94FD10601B710B613D77408A
:1047500048F388E00DC08B85823039F520E030E0E9
:10476000A9016AE3CE010E94B622882389F086E07F
:104770008D83CE010E944E2280E0DF91CF911F9168
:104780000F91FF90EF90BF90AF909F908F90089502
:104790000E944922807C803C11F483E08B870E9438
:1047A00049220E9449220E944922CE010E944E22A3
:1047B0006E2DCE01DF91CF911F910F91FF90EF9061
:1047C000BF90AF909F908F900C947B220F931F937C
:1047D000CF93DF93EC010E94FD108B010E944922D0
:1047E0008A878F3F49F40E94FD10601B710B6D3268
:1047F0007140A0F38FE003C08E3F39F08DE08D83D0
:10480000CE010E944E2280E001C081E0DF91CF9175
:104810001F910F910895CF92DF92EF92FF920F9325
:104820001F93CF93DF93EC016901C801820F931F9F
:104830008130924008F06FC08E81882371F08881AA
:104840009981AA81BB81481759076A077B0729F418
:104850008F819885C816D90618F5488359836A83CD
:104860007B838B85833039F089E0440F551F661FA9
:10487000771F8A95D1F79A01AB0161E1CE010E94C1
:10488000B622882319F083E08D8345C0CE010E94B3
:10489000E623882309F43FC018861F8281E08E83B7
:1048A0008FEF8EBD2FEF8F8198858C159D0550F46D
:1048B0000DB407FEFDCF2EBD8F8198850196988798
:1048C0008F83F1CFC8010197F7014FEF9F012E1998
:1048D0003F092817390738F40DB407FEFDCF2EB570
:1048E00021934EBDF3CF0DB407FEFDCF2EB5F701DA
:1048F000E80FF91F20838F819885080F191F1887EB
:104900000F838985882319F00115124048F0CE01E4
:104910000E94582205C0CE010E944E2280E001C0B4
:1049200081E0DF91CF911F910F91FF90EF90DF9089
:10493000CF900895EF92FF920F931F9301151105E9
:1049400019F00E940B2401C081E01F910F91FF908C
:10495000EF900895EF92FF920F931F93790100E07B
:1049600012E020E030E00E940B241F910F91FF9095
:10497000EF900895CF93DF93EC016EBD20E030E01F
:104980000DB407FEFDCFFA01E20FF31F80818EBD4B
:104990000DB407FEFDCF81818EBD2E5F3F4F2115E7
:1049A00082E0380769F70DB407FEFDCF8FEF0E9454
:1049B00044228FEF0E9444220E9449228A87982F26
:1049C0009F71953039F081E18D83CE010E944E2296
:1049D00080E001C081E0DF91CF9108950F931F9394
:1049E000CF93DF93EC0189014115510561057105F4
:1049F00011F482E132C08B85833039F089E0440FB5
:104A0000551F661F771F8A95D1F79A01AB0168E1A0
:104A1000CE010E94B622882311F084E01EC0A801B6
:104A20006EEFCE010E94BA248823C1F068E572E0DF
:104A3000CE010E949B22811102C085E10EC020E0C0
:104A400030E0A9016DE0CE010E94B622811104C0C0
:104A50000E944922882339F084E18D83CE010E948F
:104A60004E2280E004C0CE010E944E2281E0DF9100
:104A7000CF911F910F9108958091C8188823A9F1B3
:104A80004091010250910202609103027091040270
:104A90002BEC38E18091C9189091CA180E94EE243D
:104AA000811102C080E008954091C4185091C5184A
:104AB0006091C6187091C7184115510561057105BF
:104AC00091F02BEC38E18091C9189091CA180E949E
:104AD000EE24882339F31092C4181092C51810924E
:104AE000C6181092C7181092C81881E00895CF9286
:104AF000DF92EF92FF92CF936B017C01C42F8091E4
:104B0000010290910202A0910302B09104028C155F
:104B10009D05AE05BF05D1F00E943C25811102C064
:104B200080E01AC02BEC38E1B701A6018091C918CA
:104B30009091CA180E94AA24882391F3C09201027E
:104B4000D0920202E0920302F09204028091C8180F
:104B5000C82BC093C81881E0CF91FF90EF90DF90F1
:104B6000CF900895CF92DF92EF92FF926B017C017C
:104B70000E943C258823A9F0EBECF8E111928AE130
:104B8000EB3CF807D9F7C0920102D0920202E09202
:104B90000302F09204028091C81881608093C818C3
:104BA00081E0FF90EF90DF90CF9008958F929F92D9
:104BB000AF92BF92CF92DF92EF92FF920F931F932B
:104BC000CF93DF93FC0181859285A385B4850196FF
:104BD000A11DB11D84179507A607B70710F480E043
:104BE0005CC083899489A589B689C789C03129F4B5
:104BF000852E962EA72EBB2409C04A015B01C7E073
:104C0000B694A79497948794CA95D1F7E9016A015D
:104C10007B018F01BC01CD01680D791D8A1D9B1D93
:104C20008090010290900202A0900302B0900402D2
:104C3000681579058A059B0599F4F8018789803103
:104C4000A9F4B701A601552766277727440F551FFA
:104C5000FA01E553F74E80819181A0E0B0E018C0E1
:104C600040E00E9477258111E8CFB9CFB701A601B6
:104C70004F77552766277727440F551F440F551F39
:104C8000FA01E553F74E80819181A281B381BF7013
:104C900088839983AA83BB8381E0DF91CF911F91A1
:104CA0000F91FF90EF90DF90CF90BF90AF909F90CB
:104CB0008F9008954F925F926F927F92AF92BF92C2
:104CC000CF92DF92EF92FF920F931F93CF93DF93D8
:104CD00000D01F92CDB7DEB78C0149835A836B8316
:104CE0007C835901C12CD12C7601412C82E0582EB5
:104CF000612C712C49815A816B817C819E012F5FCF
:104D00003F4FC8010E94D625882351F1D301C2012B
:104D1000F801058404C0880F991FAA1FBB1F0A94BD
:104D2000D2F7C80ED91EEA1EFB1E49815A816B813B
:104D30007C818789803129F088EF9FEFAFEFBFE05A
:104D400004C088EF9FEFA0E0B0E0481759076A075A
:104D50007B0780F2F501C082D182E282F38281E09A
:104D60000F900F900F900F90DF91CF911F910F91A7
:104D7000FF90EF90DF90CF90BF90AF907F906F90BB
:104D80005F904F9008954F925F926F927F928F92B3
:104D90009F92AF92BF92CF92DF92EF92FF920F93CA
:104DA0001F93CF93DF93EC016A017B012801390146
:104DB000423051056105710510F480E073C08985AA
:104DC0009A85AB85BC850196A11DB11D84179507F9
:104DD000A607B70790F38B889C88AD88BE888F891B
:104DE000803129F4BB27AF2D9E2D8D2D09C0DB010D
:104DF000CA0147E0B695A795979587954A95D1F74B
:104E0000880E991EAA1EBB1E80910102909102027B
:104E1000A0910302B091040288169906AA06BB0667
:104E200079F48F898031A1F4DD24EE24FF24C601BA
:104E3000880F991FFC01E553F74E5182408219C03B
:104E400040E0C501B4010E9477258111EACFB5CFBA
:104E5000E894C7F8DD24EE24FF24C601880F991FCB
:104E6000880F991FFC01E553F74E40825182628200
:104E700073828091C81881608093C8188A898230B3
:104E800080F08D819E81AF81B885880E991EAA1E03
:104E9000BB1E8092C4189092C518A092C618B092FA
:104EA000C71881E0DF91CF911F910F91FF90EF9094
:104EB000DF90CF90BF90AF909F908F907F906F903A
:104EC0005F904F9008952F923F924F925F926F9212
:104ED0007F929F92AF92BF92CF92DF92EF92FF921A
:104EE0000F931F93CF93DF93CDB7DEB760970FB6C5
:104EF000F894DEBF0FBECDBF5C0149875A876B8730
:104F00007C871901D901CD90DD90ED90FC90C11402
:104F1000D104E104F10431F0BFEFCB1ADB0AEB0A54
:104F2000FB0A10C0FC01C080D180E280F38099248C
:104F3000939409851A852B853C850130110521053F
:104F4000310509F0912CF50181859285A385B48501
:104F50008C019D010F5F1F4F2F4F3F4F0D871E8705
:104F60002F87388B260137011D821E821F821886EB
:104F7000F50181859285A385B4850D811E812F81E0
:104F80003885081719072A073B0708F056C02D85F2
:104F90003E854F855889241535054605570550F43B
:104FA00082E0482E512C612C712C92E0C92ED12C1C
:104FB000E12CF12C9E012F5F3F4FB301A201C501EF
:104FC0000E94D6258823C9F149815A816B817C8151
:104FD000D301C2010196A11DB11D452B462B472BC4
:104FE00019F06C017D010FC0AC01BD014C195D09C8
:104FF0006E097F0909851A852B853C854017510765
:105000006207730779F02D813E814F8158852F5FAC
:105010003F4F4F4F5F4F2D833E834F8358872C0167
:105020003D01A6CF0FEF1FEF2FEF3FE0B301A2012D
:10503000C5010E94C326811118C080E041C0D30180
:10504000C2010197A109B1098D839E83AF83B887FF
:1050500093018201AC01BD01C5010E94C3268823D2
:1050600061F34D805E806F807884C414D504E604BB
:10507000F70428F3D1014D915D916D917C9141151B
:1050800051056105710599F4F101C082D182E28276
:10509000F3829920A1F0FFEFCF1ADF0AEF0AFF0A8F
:1050A000D501CD92DD92ED92FC92139708C0970145
:1050B0008601C5010E94C3268111E6CFBECF81E0E3
:1050C00060960FB6F894DEBF0FBECDBFDF91CF91D3
:1050D0001F910F91FF90EF90DF90CF90BF90AF9016
:1050E0009F907F906F905F904F903F902F9008958A
:1050F000AF92BF92CF92DF92EF92FF920F931F93E6
:10510000CF93DF9300D01F92CDB7DEB75C016A0169
:105110007B0182E090E0A0E0B0E0F5018083918324
:10512000A283B3839E012F5F3F4FB701A601C50144
:105130000E94D625882311F100E010E09801B70104
:10514000A601C5010E94C3268823C1F0C980DA8068
:10515000EB80FC80F5018789803129F088EF9FEF93
:10516000AFEFBFE004C088EF9FEFA0E0B0E0C8164B
:10517000D906EA06FB06B0F281E001C080E00F909C
:105180000F900F900F90DF91CF911F910F91FF9093
:10519000EF90DF90CF90BF90AF9008958F929F9245
:1051A000AF92BF92CF92DF92EF92FF920F931F9335
:1051B000CF93DF93EC01142F7093CA186093C91832
:1051C000442369F1453010F080E0F2C040E060E037
:1051D00070E0CB010E9477258823B1F320E1129F74
:1051E000A00111244554574EFA01E254FE4F80812C
:1051F0008F7751F73C9680819181A281B38184366B
:105200009105A105B10500F33497C080D180E280FB
:10521000F380C114D104E104F10421F4D5CFC12CF1
:10522000D12C760140E0C701B6010E947725882382
:1052300059F28091D6189091D7188115924021F695
:105240009091DB18992309F4BFCF2091D9183091A0
:10525000DA18232B09F4B8CF8091D818882309F4E1
:10526000B3CF9A8B8C831D8690E061E070E02D8532
:10527000E22FAB01022E02C0440F551F0A94E2F741
:105280008417950731F031E0320F3D87283078F3ED
:105290009BCF2091E1183091E2182115310519F0CA
:1052A00040E050E008C02091EF183091F018409194
:1052B000F1185091F2182D833E834F8358878091C7
:1052C000D9189091DA1846015701880E991EA11C31
:1052D000B11C8B8A9C8AAD8ABE8A0091DC18109121
:1052E000DD18198F088FA091DB18B0E00E942A39D1
:1052F000860E971EA81EB91E8A8E9B8EAC8EBD8E02
:1053000085E0000F111F8A95E1F701501E4F012F14
:1053100011270695800E911EA11CB11C8E869F86BA
:10532000A88AB98A2091DE183091DF18211531053D
:1053300021F0A90160E070E008C04091EB185091A5
:10534000EC186091ED187091EE18D701C60188191C
:105350009909AA09BB09840F951FA61FB71F04C08E
:10536000B695A79597958795EA95D2F789879A87F5
:10537000AB87BC87853F2FE09207A105B10510F4EC
:105380008CE014C0853F9F4FA105B10510F480E16A
:105390000DC08091F7189091F818A091F918B0916C
:1053A000FA188A8F9B8FAC8FBD8F80E28F8B81E044
:1053B000DF91CF911F910F91FF90EF90DF90CF90F1
:1053C000BF90AF909F908F9008952F923F924F92F1
:1053D0005F926F927F928F929F92AF92BF92CF9285
:1053E000DF92EF92FF920F931F93CF93DF9300D042
:1053F000CDB7DEB74C017B836A836A01590117017F
:105400009801241B350B37FF03C0319521953109D5
:10541000C5014A815B81841B950B97FF03C0919561
:105420008195910951E059838217930714F01982ED
:105430000BC09A2D8B2D5801092F182F9A818B8123
:10544000DB82CA82C92ED82E8A819B81A816B90612
:105450005CF49C2D8D2D6801092F182F9A818B816A
:10546000BB82AA82A92EB82E2501AA81BB814A1A25
:105470005B0A38016C187D0877FE03C07194619453
:105480007108720157FE03C0BFEFEB1AFB0AF594D7
:10549000E794C016D1061CF00FEF1FEF1FC001E00C
:1054A00010E01CC0D401ED91FC91B9810084F1851C
:1054B000E02D9101BB23C1F04A815B81B601C4019B
:1054C0001995E618F708F7FE04C0C00ED11EE40CCB
:1054D000F51CEA81FB813196FB83EA834A815B817B
:1054E000A416B506FCF604C0A6016A817B81E7CF4D
:1054F0000F900F900F90DF91CF911F910F91FF9020
:10550000EF90DF90CF90BF90AF909F908F907F9063
:105510006F905F904F903F902F9008950895DC0119
:10552000ED91FC910480F581E02D19940F931F9368
:10553000DC01ED91FC91008CF18DE02D19951F910E
:105540000F9108950F931F93DC01ED91FC91028C54
:10555000F38DE02D19951F910F910895EF92FF9211
:105560000F931F93DC01ED91FC91048CF58DE02DE0
:1055700019951F910F91FF90EF9008950895AF92A4
:10558000BF92CF92DF92EF92FF920F931F93CF9330
:10559000DF9300D01F92CDB7DEB75C016901DC015B
:1055A000ED91FC910680F781E02D4B835C8369834C
:1055B0007A831995D501ED91FC914B815C81C40EE4
:1055C000D51EB1E0CB1AD1080088F189E02D780111
:1055D000860169817A819B01C5011995D501ED91FB
:1055E000FC910288F389E02DC5010F900F900F9078
:1055F0000F90DF91CF911F910F91FF90EF90DF906F
:10560000CF90BF90AF901994AF92BF92CF92DF929C
:10561000EF92FF920F931F93CF93DF9300D01F92CF
:10562000CDB7DEB75C016901DC01ED91FC9106802C
:10563000F781E02D4B835C8369837A831995D501CB
:10564000ED91FC9169817A819B012C0D3D1D2150CA
:1056500031090088F189E02D78014B815C818A0154
:10566000C5011995D501ED91FC910288F389E02DD2
:10567000C5010F900F900F900F90DF91CF911F9168
:105680000F91FF90EF90DF90CF90BF90AF90199463
:105690004F925F926F927F928F929F92AF92BF9242
:1056A000CF92DF92EF92FF920F931F93CF93DF93EE
:1056B0001F921F92CDB7DEB76C015A013901480124
:1056C000DC01ED91FC910680F781E02D69837A83FE
:1056D00019956981462E7A81572E640C751CD60166
:1056E000ED91FC91461457046CF40484F585E02D8B
:1056F00087019401A501B201C6011995BFEF4B1AAC
:105700005B0AEDCF0288F389E02DC6010F900F9060
:10571000DF91CF911F910F91FF90EF90DF90CF908D
:10572000BF90AF909F908F907F906F905F904F90C1
:105730001994EF92FF920F931F93DC01ED91FC916E
:1057400011971A960D911C911B9718962D913C91CB
:105750001997048CF58DE02D7B0140E050E060E06E
:1057600070E019951F910F91FF90EF900895CF92DF
:10577000DF92EF92FF920F931F93CF93DF9300D0AE
:1057800000D0CDB7DEB76C01DC01ED91FC91621762
:10579000730789F4041715072CF4942F852FA8019B
:1057A000092F182F041B150B98012F5F3F4F008CFA
:1057B000F18DE02D12C04017510709F52617370764
:1057C0002CF4962F872FB901292F382F261B370B42
:1057D0002F5F3F4F028CF38DE02D8701C601199595
:1057E00026960FB6F894DEBF0FBECDBFDF91CF91E6
:1057F0001F910F91FF90EF90DF90CF90089506805A
:10580000F781E02D2D833E834B835C8369837A830C
:105810001995D601ED91FC910088F189E02D2D813B
:105820003E814B815C8169817A81C6011995D601DF
:10583000ED91FC910288F389E02DC60126960FB602
:10584000F894DEBF0FBECDBFDF91CF911F910F91B6
:10585000FF90EF90DF90CF9019946F927F928F928C
:105860009F92AF92BF92CF92DF92EF92FF920F93EF
:105870001F93CF93DF93EC014B015A01690138016B
:10588000E881F9810680F781E02D1995E881F98199
:105890000684F785E02D87019601A501B401CE01AC
:1058A0001995E881F981A501460D571D415051090F
:1058B0000684F785E02D9601B401CE011995E881A3
:1058C000F9810484F585E02D9301A501B401CE0191
:1058D0001995E881F981C80CD91CB601615071098C
:1058E0000484F585E02D9301A501CE011995E88189
:1058F000F9810288F389E02DCE01DF91CF911F91CC
:105900000F91FF90EF90DF90CF90BF90AF909F905E
:105910008F907F906F9019940895FC016370658B50
:105920008481958126813781613039F0633029F097
:1059300091878087338722870895318720879387CF
:1059400082870895FC011382128284E995E0918395
:105950008083758364835783468371876087538709
:105960004287158A158614861786168681E0848BF1
:105970002FEF3FEF338B228B318B208B868B178A57
:10598000118E108E08952F923F924F925F926F92D8
:105990007F928F929F92AF92BF92CF92DF92EF92BF
:1059A000FF920F931F93CF93DF93CDB7DEB7289766
:1059B0000FB6F894DEBF0FBECDBF5C013B014A01BC
:1059C00038872F83FC82EB8281E090E02C01421A21
:1059D000530AC9019195819591099C01220F331FAA
:1059E0003A832983170133E0230E311CEE24E3941C
:1059F000F12C802F81708D8302700E83C701019777
:105A0000EF81F8858E179F070CF078C057FC0CC00B
:105A1000AF81B8851197B887AF83E981FA81329653
:105A2000FA83E9834E0E5F1EC701880F991F019606
:105A3000480E591EFD81FF2359F1D501ED91FC91CE
:105A40002F813885220F331F2F5F3F4F8B819C8121
:105A5000280F391F0484F585E02D8601A401AF814C
:105A6000B8854A1B5B0BB701660D771DC5011995FB
:105A7000D501ED91FC910484F585E02D9101A401FF
:105A80004E195F096F817885660D771DC5011995DF
:105A9000BE81BB2361F1D501ED91FC912F81388549
:105AA000220F331F2F5F3F4F8B819C81280F391F9F
:105AB0000484F585E02D8601A401AF81B8854A1BD9
:105AC0005B0BB3016E197F09C5011995D501ED91E5
:105AD000FC910484F585E02D9101A4014E195F0924
